:0600000002008B020290D9
:01000B0032C2
:0100130032BA
:03001B0002258635
:0100230032AA
:01002B0032A2
:01003300329A
:01003B003292
:01004300328A
:03004B00020E544E
:01005300327A
:01005B003272
:01006300326A
:01006B003262
:030073000227D78A
:01007B003252
:030083000206EE84
:03010D0002008667
:0300860002011064
:03011000020113D6
:2001130053BEFBAEBE7F00EE30E6F874B855C6FF7E008FC6AEC67F00EE20E6F8AEBE43062C
:20013300048EBE121D6F120E0DD2AF1224E5120173D280900064E4F5F0120E79C280D28132
:20015300900064E4F5F0120E79C28190F0F17401F075C90890F0F2E0700512191880F52236
:0400E4007803E4F2C7
:2001730090DF0074FFF090DF01E4F090DF0214F090DF03E4F090DF04F090DF05F090DF075E
:200193007406F090DF08E4F090DF0C7499F090DF0DF4F090DF0E03F090DF0F7461F090DF9D
:2001B30010747EF090DF117415F090DF127407F090DF137430F090DF1403F090DF1514F041
:2001D30090DF16746CF090DF1A74B6F090DF1B7411F090DF1C74E9F090DF1D742AF090DFB4
:2001F3001EE4F090DF1F741FF090DF247431F090DF257409F090DF2EE4F090DF177407F05E
:2002130090DF18E4F090DF197491F090DF097426F090DF0A7430F090DF0B7470F090DF0621
:200233007402F090DF2D74C0F0AE9A7F004306018E9AD2A8741344F1602F90F113E4F0908F
:20025300F11475F00012340090F11575F00074F3123400A374F0123400A3E412340090F198
:200273001875F000742002340022E582FF24FD40087803EFF27582012275820022C0E0C044
:20029300F0C082C083C007C006C005C004C003C002C001C000C0D075D00090DF3BE0FFBF9D
:2002B3000D028003020636780AE5D9F27800E2600302050D90DF3A780EE0F2780B7413F25B
:2002D3000874F1F208E4F27C00741344F170030203DA7A137EF17F00741344F160527413D4
:2002F30044F16026C002C006C00790F113E0FF90F11475F0001235AFFEEFC39EFF8F087525
:200313000900D007D006D0028005E4F508F509AD0874052AFAE43EFE8A828E838FF0123589
:20033300AFFA780FEDB5020474018001E4F28005780F7401F2780FE260030203DA780BE283
:200353002402FA08E23400FE08E2FF8A828E838FF01235AFFAA31235AFFEA31235AFFF7832
:200373000BE2F58208E2F58308E2F5F01235AFF508780BE22405FB08E23400FC08E2FD8BCD
:20039300828C838DF01235AFFB8BF0E50884E5F0FB2AFAE43EFE8A828E838FF0780EE21235
:2003B3003400780BE2F58208E2F58308E2F5F01235AFFF0F780BE2F58208E2F58308E2F5C8
:2003D300F0EF1234007C01EC700B788BE22401F208E23400F2788D7913E2F378107413F28E
:2003F3000874F1F208E4F27D00741344F170030204FA7A137BF17F00741344F16052741394
:2004130044F16026C002C003C00790F113E0FF90F11475F0001235AFFBEFC39BFF8F08750C
:200433000900D007D003D0028005E4F508F509AE0874052AFAE43BFB8A828B838FF0123573
:20045300AFFA7814EEB5020474018001E4F2800578147401F27814E260030204FA7810E22C
:200473002402FA08E23400FB08E2FF8A828B838FF01235AFFAA31235AFFBA31235AFFF781A
:2004930010E2F58208E2F58308E2F5F01235AFF5087810E22405FC08E23400FD08E2FE8C9E
:2004B300828D838EF01235AFFC8CF0E50884E5F0FC2AFAE43BFB8A828B838FF07813E21213
:2004D30034007810E2F58208E2F58308E2F5F01235AFFF0F7810E2F58208E2F58308E2F59D
:2004F300F0EF1234007D01ED700B788BE22401F208E23400F278007402F2780A7918E2F30A
:2005130078157413F20874F1F208E4F27D00741344F1700302061F7A137BF17F007413446F
:20053300F16052741344F16026C002C003C00790F113E0FF90F11475F0001235AFFBEFC367
:200553009BFF8F08750900D007D003D0028005E4F508F509AE0874052AFAE43BFB8A828BF5
:20057300838FF01235AFFA7819EEB5020474018001E4F2800578197401F27819E26003021B
:20059300061F7815E22402FA08E23400FB08E2FF8A828B838FF01235AFFAA31235AFFBA3D2
:2005B3001235AFFF7815E2F58208E2F58308E2F5F01235AFF5087815E22405FC08E2340077
:2005D300FD08E2FE8C828D838EF01235AFFC8CF0E50884E5F0FC2AFAE43BFB8A828B838FF0
:2005F300F07818E21234007815E2F58208E2F58308E2F5F01235AFFF0F7815E2F58208E255
:20061300F58308E2F5F0EF1234007D01ED700B788BE22401F208E23400F27800E22401F2E8
:200633000206D390DF3BE0FFBF130280030206D37802E2FF24F950030206D3EF2F90065463
:2006530073800C801B8079804080318049807190F21AE0FEA3E0FF8FD978027401F28060A4
:2006730090F21AE0FEA3E0FF8ED97801E2600778027404F2804A7802E4F2804490DF00E031
:20069300F5D978027403F2803790DF01E0F5D978027405F2802A90F218E0FFE02401F0EFD5
:2006B3002419F582E434F1F583E0F5D990F218E0FF90F219E0FEC3EF9E400578027406F2D7
:2006D300D0D0D000D001D002D003D004D005D006D007D083D082D0F0D0E032C0E0C007C05D
:2006F30006C000C0D075D000539BFCAEE97F00EE30E70875E10453E97F8023AEE97F00EE83
:2007130030E6107889E22401F208E23400F253E9BF800BAEE97F00EE30E50353E9DFD0D039
:20073300D000D006D007D0E032E5827820F2781AE2FD7E000DBD00010E784F7422F208E453
:20075300F2087460F278527426F208E4F2087460F27803E2F582C006C00512107C90F2261F
:2007730075F0001221DBD005D006782090DF06E2F090F219E4F0781FE2FCEC7003020859C3
:20079300C005C006C006C005C004122958AB82D004D005D0067821EBF21C7822E2FA08E23B
:2007B300FEC006C005C004C002C0031207C3800BC002C00690F02675F060221581D002D0A0
:2007D30004D005D006ECB401009200D006D0057824E2FA08E2FBC006C005C004C003A20068
:2007F300E433C0E07421C0E074F0C0E07460C0E0120808800BC002C00390F02675F06022C3
:20081300AA82E58124FCF581D003D004D005D006EA700302078D90F219E0FB7A000BBB00A2
:20083300010AC3EB94FFEA6480948050A290F219E0FBE02401F0EB2419F582E434F1F583FA
:200853007821E2F080897B007C00C3EB9DEC9E506BEB4C6038781BE2F5F008E245F0602DB5
:20087300C005C006781BE2FA08E2FD7E007F008A828D838EF0EFC006C005C004C003120ECC
:2008930079D003D004D005D006D006D00575C9A875C958781D7929E2F308E209F37820E2E7
:2008B300F582C006C005C004C0031208D0D003D004D005D0060BBB00910C808E22AF82900C
:2008D300DF0EE0FE90DF02E0FD90DF04E0FC788FE22401F208E23400F290F21AE0FAA3E094
:2008F300FB4A602890DF0EE0FB74FC5BF090DF04E0FB5303FC7A0043030290DF04EBF090C5
:20091300DF02E4F07801F27802F280207829E2F5F008E245F0600778027402F280057802C9
:200933007405F290F219E0FB90DF02F075E10490DF3BE0FBBB01F890DF06EFF090F218E4FD
:20095300F075E10390DF3BE0FFBF13F87829E2F5F008E245F0603EC0047829E2FA08E2FB9D
:200973007C007F008A828B838CF0EFC006C005C004120E79D004D005D00690F21AE0FCA362
:20099300E0FF4CD004700E78027405F2AB887F004303028B8890F21AE0FBA3E0FF4B60052C
:2009B30078017401F290DF3BE0FFBF130280F690DF3BE0FFBF160375E10490DF02EDF090D8
:2009D300DF0EEEF090DF04ECF022AF827832E4F27833F2F50C782BE2F5F008E242F008E209
:2009F30042F008E245F06016C2AF78347941E3F20809E3F20809E3F20809E3F2D2AF90F2BC
:200A13003775F000C0071221DB7855741CF20874F2F208E4F278587420F20874F2F208E423
:200A3300F27803E2F582121158D00775E10490DF3BE0FCBC01F890DF06EFF07800E4F278DC
:200A5300E27411F278E37420F208E4F290F0F375F0001233AC75E10290DF3BE0FFBF0DF8FD
:200A7300782BE2F50D08E2F50E08E2F50F08E2F5107831E4F275C9A875C958741344F160FB
:200A930032741344F1601A90F113E0FD90F11475F0001235AFFEEDC39EFD8D0A750B00809A
:200AB30005E4F50AF50BAE0A7838EEB40100E433F2800578387401F27838E26003020C6127
:200AD30078397413F20874F1F208E4F27C00741344F1602C741344F1601790F113E0FB90A6
:200AF300F11475F0001235AFFAEBC39AFA7B0080047A007B00783CEAB40100E433F2800572
:200B1300783C7401F2783CE26003020BB17839E22402FA08E23400FB08E2FF8A828B838F92
:200B3300F01235AFF511A31235AFF512A31235AFF5137839E22401F51408E23400F5150884
:200B5300E2F5168514828515838516F01235AFF50A7839E22405FA08E23400FB08E2FF8A9B
:200B7300828B838FF01235AFFA8AF0E50A84E5F02511FAE43512FFAE138A828F838EF012D8
:200B930035AFFC8514828515838516F01235AFFF0F8514828515838516F0EF1234007832F9
:200BB300ECF27831E22401F27831E2B40111786E7401F2758201121DB87582DD122AF178AC
:200BD30031E2B40300500A7832E2F582122AF1806790F21CE0FEA3E0FFC007C0067832E2B0
:200BF300C0E0120BFA800BC006C00790F22075F0002285820C1581D006D00790F21EE0FE16
:200C1300A3E0FFC0077432C0E074F0C0E07460C0E0120C29800BC006C00790F22075F00054
:200C330022AE82158115811581D007EE600A7832E2F582122AF180C3E50C7076782FE2602B
:200C53000D90DF02E0FF7831E2B507028064E50D450E450F45106045C2AF78417934E3F5B5
:200C7300F0C3E295F0FC09E3F5F008E295F0FD09E3F5F008E295F0FE09E3F5F008E295F090
:200C9300FFC3E50D9CE50E9DE50F9EE5109FE433FCD2AFEC6007783374AAF280157896E214
:200CB3007003020A88122958E582785BF2783374BBF275E10490DF3BE0FFBF01F874134429
:200CD300F1602C741344F1601790F113E0FF90F11475F0001235AFFEEFC39EFE7F0080049F
:200CF3007E007F007830EEB40100E433F2800578307401F27830E26003020DE1783D7413E3
:200D1300F20874F1F208E4F2741344F1602C741344F1601790F113E0FC90F11475F000129A
:200D330035AFFBECC39BFB7C0080047B007C007840EBB40100E433F2800578407401F27808
:200D530040E26003020CD0783DE22402FA08E23400FB08E2FC8A828B838CF01235AFF514D2
:200D7300A31235AFF515A31235AFF516783DE22401FD08E23400FE08E2FF8D828E838FF0BC
:200D93001235AFF511783DE22405FA08E23400FB08E2FC8A828B838CF01235AFFA8AF0E5A6
:200DB3001184E5F02514FAE43515FCAB168A828C838BF01235AF8D828E838FF01235AFFC7B
:200DD3000C8D828E838FF0EC123400020CD07833E2700B788DE22401F208E23400F2786E49
:1A0DF300E4F2758201121DB87833E2F58222AF83E58290F21AF0EFA3F02242
:0A00E8007841E4F208F208F208F291
:200E0D007841E4F208F208F208F2F5E4F5E275E4017845E5E2F27846E5E3F27845E2FE08AB
:200E2D00E2FFC3E49E74A09F50E775E40075DB0075DA5D75E544AFD8A2DEE4334FF5D8D296
:200E4D00B9D2AF75E40E22C0E0C000C0D075D0007841E22401F208E23400F208E23400F2BB
:200E6D0008E23400F2D0D0D000D0E032AF82AE83ADF0FC7847EFF208EEF208EDF208ECF2B3
:200E8D00C2AF784B7941E3F20809E3F20809E3F20809E3F2D2AFC2AF7841794BE3F5F0C3D6
:200EAD00E295F0FA09E3F5F008E295F0FB09E3F5F008E295F0FE09E3F5F008E295F0FF7894
:1E0ECD0047C3E29A08E29B08E29E08E29FE433FAD2AFEA700875C9A875C95880B92220
:200EEB00AD82AE83AFF00DBD00010E8D828E838FF0E4023400C01A85811AAD82AE83AFF05D
:200F0B0074012DFAE43EFB8F048A828B838CF074011234008D828E838FF0E51A24FDF8E68C
:200F2B00123400D01A22C01A85811AC082C083C0F0058105810581A81A08740126FAE40848
:200F4B0036FB0886048A828B838CF01235AFFFBF01005005758200804CE51A24FBF8E51A4B
:200F6B002404F9E6F70809E6F70809E6F7A81A0886820886830886F01235AFFFE51A24040F
:200F8B00F886820886830886F0EF1234008A828B838CF01235AFFF1F8A828B838CF0EF1241
:200FAB003400758201851A81D01A22AD82AE83AFF00DBD00010E8D828E838FF0E40234003D
:200FCB00C01A85811AAD82AE83AFF0E51A24FDF8E61234000DBD00010E8D828E838FF074DD
:200FEB0001123400E51A24FDF8E670057582018003758200D01A22C01A85811AC082C0832F
:20100B00C0F0058105810581A81A08740126FAE40836FB0886048A828B838CF01235AFFFEA
:20102B00BF010050057582008041E51A24FBF8E51A2404F9E6F70809E6F70809E6F7A81A27
:20104B000886820886830886F01235AFFFE51A2404F886820886830886F0EF1234008A82FA
:20106B008B838CF0E4123400758201851A81D01A22AF82BF0002800CBF0102804ABF0203BF
:20108B0002111522784FE2FD08E2FE08E2FF8D828E838FF07400123400A3740F123400744B
:2010AB00022DFDE43EFE8D828E838FF07431123400A3740F1234007852E2F58208E2F5835E
:2010CB0008E2F5F0020EEB784FE2FD08E2FE08E2FF8D828E838FF0744C123400A3741212E4
:2010EB00340074022DFDE43EFE8D828E838FF07412123400A374131234007852E2F58208EB
:20110B00E2F58308E2F5F0021234784FE2FD08E2FE08E2FF8D828E838FF07402123400A3DE
:20112B00741512340074022DFDE43EFE8D828E838FF074A7123400A374151234007852E2F7
:20114B00F58208E2F58308E2F5F00214E3AF82BF0002800CBF0102804ABF02030211F122EF
:20116B007855E2FD08E2FE08E2FF8D828E838FF074CB123400A3740F12340074022DFDE4D3
:20118B003EFE8D828E838FF07402123400A374101234007858E2F58208E2F58308E2F5F0E6
:2011AB00020FB67855E2FD08E2FE08E2FF8D828E838FF074B2123400A374131234007402EF
:2011CB002DFDE43EFE8D828E838FF07469123400A374141234007858E2F58208E2F58308F4
:2011EB00E2F5F00213997855E2FD08E2FE08E2FF8D828E838FF07404123400A37417123421
:20120B000074022DFDE43EFE8D828E838FF07477123400A374181234007858E2F58208E2AB
:09122B00F58308E2F5F00216BBA0
:20123400AD82AE83AFF074022DFDE43EFE8D828E838FF07402023400C01A85811AC082C094
:2012540083C0F005810581E51A2404F8E4F608F67A087C00E51A2404F8E625E0FB08E63320
:20127400FFEB2BFBEF33FF74022BFBE43FFFE51A24FDF8E6235401FE7D00EBC39EFBEF9DA7
:20129400FFE51A2404F8A60308A607E51A24FDF88607E51A24FDF8EF2FF6EA24FFFEEC34C2
:2012B400FFFF8E028F04EE4F70AAE51A2404F8088604A81A0886820886830886F0EC12345E
:2012D40000A81A08740126FAE40836FB088604E51A2404F886078A828B838CF0EF12340075
:2012F400A81A08740226FDE40836FE0886078D828E838FF0E4123400851A81D01A22C01AF3
:20131400E581F51A2404F581AD82AE83AFF074022DFAE43EFB8F048A828B838CF0A81A08FA
:201334001235AFF6A81A08E624FE5005758200804EE51A24FBF8A91A0909E6F70809E6F70B
:201354000809E6F7A81A08E62DFDE43EFE8D828E838FF01235AFFDA81A0808868208868314
:201374000886F0ED1234008A828B838CF01235AFFF0F8A828B838CF0EF12340075820185C6
:201394001A81D01A22AD82AE83AFF0E41234000DBD00010E8D828E838FF0E4023400C01AFD
:2013B40085811A05810581AD82AE83AFF07C007A067B00C005C006C0078C07EF2FFC8AF0FE
:2013D40005F0E51A24FDF8E68002C313D5F0FBFF7E00A81A0874035FF6087600A81A08B6DD
:2013F400000C08B60008D007D006D005801CD007D006D005A81A08B6010608B60002800F91
:20141400A81A08B6030A08B6000675820180400CEA24FEFAEB34FFFB30E7988D828E838F26
:20143400F01235AFC454F02CFB8D828E838FF01234000DBD00010E8D828E838FF01235AF30
:201454002404FC8D828E838FF0123400758200851A81D01A22C01A85811AC082C083C0F01D
:20147400058105810581A81A08740126FAE40836FB0886048A828B838CF01235AFFFBF0866
:201494000050057582008041E51A24FBF8E51A2404F9E6F70809E6F70809E6F7A81A0886EC
:2014B400820886830886F01235AFFFE51A2404F886820886830886F0EF1234008A828B830D
:0F14D4008CF0E4123400758201851A81D01A223F
:2014E300AD82AE83AFF0E4123400A312340074022DFDE43EFE8D828E838FF0E4023400C09E
:201503001A85811AC082C083C0F0E51A24FDF8E6C4540F244BF582E434FBF583E0FCE4C340
:20152300CC13CC13A2E0CC13CC13CCFBE51A24FDF8860253020F7F00EA244BF582EF34FB72
:20154300F583E07E004204EE4203A81A0886820886830886F01235AFFEA31235AFEEC45445
:20156300F0FFE44204EF4203A81A0886820886830886F0EC123400A3EB123400A81A087476
:201583000226FDE40836FE0886078D828E838FF01235AF240C8D828E838FF0123400851A25
:2015A30081D01A22C01A85811AC082C083C0F0058105810581A81A08740226FAE40836FB5D
:2015C3000886048A828B838CF01235AFFDBD0800E433FF600DE51A24FAF8E67005F58202BC
:2015E30016B5ED7005F5820216B5E51A24FAF8E6605BEF6058E51A24FBF8E51A2404F9E6FE
:20160300F70809E6F70809E6F7A81A0886820886830886F01235AFFEA31235AF8D077408F6
:20162300C39FFF8FF005F0EE800225E0D5F0FBFFE51A2404F886820886830886F0EF1234B3
:20164300008A828B838CF0E41234008062E51A24FBF8E51A2404F9E6F70809E6F70809E6ED
:20166300F7A81A0886820886830886F01235AFFEA31235AFFFED24F8FD8DF005F08007C3C1
:20168300EF13FFEE13FED5F0F6E51A2404F886820886830886F0EE1234008A828B838CF00C
:2016A3001235AF24F8FF8A828B838CF0123400758201851A81D01A22AD82AE83AFF0E41221
:2016C3003400A312340074022DFAE43EFB8F048A828B838CF0E412340074032DFAE43EFB22
:2016E3008F048A828B838CF0E4123400A312340074052DFDE43EFE8D828E838FF0E402342F
:2017030000C01A85811AC082C083C0F005810581A81A0886820886830886F01235AFFBA396
:201723001235AF8B047B00E51A24FDF886027F00EA4203EF4204A81A0886820886830886B2
:20174300F0EB123400A3EC123400A81A08740226FDE40836FE0886078D828E838FF0123592
:20176300AF2408FC8D828E838FF01234008D828E838FF01235AFFCBC0600500302186EA8D4
:201783001A0886820886830886F01235AFFBA31235AFFC8D828E838FF01235AF24FAFA8AD0
:2017A300F005F08007C3EC13FCEB13FBD5F0F6743F5BFC8D828E838FF01235AF24FA8D827C
:2017C3008E838FF01234007B00EB244BF582E434FBF583E0FAB5040280060BBB100040E93F
:2017E300BB1006758201021871C005C006C007A81A08740326FAE40836FC0886078A828C94
:20180300838FF01235AFFDA31235AFFEE51A2404F8A605EEC454F0C6C4C666C654F0C6668D
:2018230008F67E00E51A2404F8E6420308E642068A828C838FF0EB123400A3EE123400A85F
:201843001A08740526FDE40836FE0886078D828E838FF01235AF2404FC8D828E838FF012A8
:201863003400D007D006D005021770758200851A81D01A22C01AE581F51A2404F581AD82E7
:20188300AE83AFF074052DFAE43EFB8F048A828B838CF0A81A081235AFF6A81A08B6080051
:2018A30050057582008068E51A24FBF8A91A0909E6F70809E6F70809E6F774032DFDE43E8A
:2018C300FE8D828E838FF01235AFFDA31235AFFEA81A08E624F8FF8FF005F08007C3EE1354
:2018E300FEED13FDD5F0F6A81A080886820886830886F0ED1234008A828B838CF01235AF07
:1519030024F8FF8A828B838CF0123400758201851A81D01A22B4
:1035E10015313223342526161A192A0B2C0D0E1CDF
:0700F200785BE4F2785CF298
:20191800122958121D2C785BE2600C785BE2F582121D2C785BE4F22212295812027DE582C3
:2019380060087582DD122AF18006758211122AF102324E122958AF82C007122934AE827D42
:201958000078ED7402F208E4F28E828D831234FBAD82AE83D007785DEDF2BF01028005BF72
:20197800021280087C267EF27F00800E7C377EF27F0080067C007E007F00EC4E60158C8236
:201998008E838FF0C007C006C004122142D004D006D0077A007B00C004C006C007785DE25B
:2019B800FE7F00C3EA9EEB64808FF063F08095F0D007D006D0045053C007C006C004C00369
:2019D800C002122958785EE582F2122958AD82D002D003D004D006D007EC4E6027785E7973
:2019F80070E2F37871EDF28C828E838FF0C007C006C004C003C002122146D002D003D0045C
:201A1800D006D0070ABA008F0B808C7582DD122AF102324E122958AF82C007122AB2AB826E
:201A3800AC83ADF0FED007782BEBF208ECF208EDF208EEF2785C792FE2F38F821209DDE579
:201A580082FFFE60058E82122AF102324E7582DD122AF19035CF75F08002337F7582DD12B7
:201A78002AF19035D275F08002337F122958AF82C007122958785FE582F2122A93AC82AD0B
:201A980083C005C004122A93AA82AB83C003C002122934AE82D002D003D004D005D0077838
:201AB8005F791AE2F3781BECF208EDF2781DEAF208EBF2781FEEF28F8212073C7582DD12D6
:201AD8002AF102324E1229587860E582F2122958AF82C007122A937861E582F208E583F29F
:201AF8001229587863E582F2122AB2AA82AC83ADF0FEC006C005C004C002122958AB82D082
:201B180002C003C002122A937864E582F208E583F21229347866E582F2D002D003D004D0D1
:201B380005D006D007781AEFF27861791BE2F308E209F37864791DE2F308E209F3786679BC
:201B58001FE2F37860E2F582C006C005C004C003C00212073CD002D003D004D005D0067883
:201B78002BEAF208ECF208EDF208EEF2785C792FE2F37863E2F582C006C005C004C003C03A
:201B9800021209DDAF82D002D003D004D005D006BFAA5DEB605A78647929E2F308E209F33A
:201BB8007860E2F582C006C005C004C003C0021208D0D002D003D004D005D006782BEAF27B
:201BD80008ECF208EDF208EEF2785C792FE2F37863E2F582C006C005C004C003C0021209C4
:201BF800DDAF82D002D003D004D005D0061B80A0EF60058F82122AF102324E122958121D8A
:201C1800DCAF827582DDC007122AF1D0078F82122AF102324E122958AF82C007122958AE74
:201C380082D007786FEEF28F82C007121F6AAE82D007BF0205785C7401F28E82122AF102B2
:201C5800324EC2AF75C90922122958AF82C007122958AE82D007786DEEF28F82121D8A75E9
:201C780082DD122AF102324E122A93120E017582DD122AF102324E12017375820012027DBD
:201C9800900000120E017582DD122AF102324E7582DD122AF1C2AF78677941E3F20809E324
:201CB800F20809E3F20809E3F2D2AF7867E2F58208E2F58308E2F5F008E2122E137889E244
:201CD800F58208E2F583122BF6788BE2F58208E2F583122BF6788DE2F58208E2F583122BF2
:201CF800F6788FE2F58208E2F583122BF67891E2F58208E2F583122BF67893E2F58208E29C
:201D1800F583122BF6900000122BF6900000122BF602324EE582FF6029BF0F005024EF7563
:201D3800F002A4245BF58274FB35F0F583E0FEA3E0FFC007C0068E828F83120089D006D0A3
:171D58000722122934E582600512295880F4758222122AF102324E41
:1235CF004F4B00737562675F726673707920322E32005A
:1E35F1000000651A741A2C1A831ADD1A2D1C5A1C601C131C4B193019801C8F1CA71CB4
:0700F900786BE4F2786CF271
:201D6F0043FD03C280C281786DE4F2758200121D8A786DE4F2758201021D8AE582FF7013DC
:201D8F00786DE2FE786BF2BE0103D28022EE7018C28022BF0112786DE2FF786CF2BF010359
:201DAF00D28122EF7002C28122E582FF700E786BE2B40218786EE224FF928022BF010D78FE
:201DCF006CE2B40207786EE224FF928122122958E582FF24D15003021F65EF240A83F582EB
:201DEF00EF243383F583E473555D656D757D858D959DA5ADB5BDC5CDD5DDE5EDF5FC030AAA
:201E0F0011181F262D343B4265656565495065656565656565575E1E1E1E1E1E1E1E1E1EB4
:201E2F001E1E1E1E1E1E1E1E1E1E1E1E1E1F1F1F1F1F1F1F1F1F1F1F1F1F1F1F1F1F1F1FC0
:201E4F001F1F1F1F1F1F90DF00E0FF021F6790DF01E0FF021F6790DF02E0FF021F6790DFC5
:201E6F0003E0FF021F6790DF04E0FF021F6790DF05E0FF021F6790DF06E0FF021F6790DFE9
:201E8F0007E0FF021F6790DF08E0FF021F6790DF09E0FF021F6790DF0AE0FF021F6790DFB9
:201EAF000BE0FF021F6790DF0CE0FF021F6790DF0DE0FF021F6790DF0EE0FF021F6790DF89
:201ECF000FE0FF021F6790DF10E0FF021F6790DF11E0FF021F6790DF12E0FF021F6790DF59
:201EEF0013E0FF021F6790DF14E0FF806B90DF15E0FF806490DF16E0FF805D90DF17E0FF1F
:201F0F00805690DF18E0FF804F90DF19E0FF804890DF1AE0FF804190DF1BE0FF803A90DFBD
:201F2F001CE0FF803390DF1DE0FF802C90DF1EE0FF802590DF1FE0FF801E90DF24E0FF80BF
:201F4F001790DF25E0FF801090DF2DE0FF800990DF2EE0FF80027F5A8F8222AF827EDDEFCF
:201F6F0024D1500302213DEF240A83F582EF243383F583E473E2ECF6000A141E28323C461F
:201F8F00505A646E78828C96A0AAB4BEC8D1DAE3ECF5FE07103D3D3D3D19223D3D3D3D3D32
:201FAF003D3D2B341F1F1F20202020202020202020202020202020202020202020202020BC
:201FCF0020202121212121212121212121212121212121786F90DF00E2F002213F786F9080
:201FEF00DF01E2F002213F786F90DF02E2F002213F786F90DF03E2F002213F786F90DF044B
:20200F00E2F002213F786F90DF05E2F002213F786F90DF06E2F002213F786F90DF07E2F02F
:20202F0002213F786F90DF08E2F002213F786F90DF09E2F002213F786F90DF0AE2F00221B5
:20204F003F786F90DF0BE2F002213F786F90DF0CE2F002213F786F90DF0DE2F002213F78F8
:20206F006F90DF0EE2F002213F786F90DF0FE2F002213F786F90DF10E2F002213F786F9087
:20208F00DF11E2F002213F786F90DF12E2F002213F786F90DF13E2F002213F786F90DF146A
:2020AF00E2F002213F786F90DF15E2F002213F786F90DF16E2F002213F786F90DF17E2F05F
:2020CF00806E786F90DF18E2F08065786F90DF19E2F0805C786F90DF1AE2F08053786F9035
:2020EF00DF1BE2F0804A786F90DF1CE2F08041786F90DF1DE2F08038786F90DF1EE2F08073
:20210F002F786F90DF1FE2F08026786F90DF24E2F0801D786F90DF25E2F08014786F90DF74
:20212F002DE2F0800B786F90DF2EE2F080027E118E8222E4023400AFF0AE83E5827872F240
:20214F0008EEF208EFF27872E2F58208E2F58308E2F5F01235AFFCBC0700506F7872E224C7
:20216F0001FA08E23400FB08E2FFEC2C2AFCE43BFE8F058C828E838DF07870E21234007840
:20218F0072E2F58208E2F58308E2F5F01235AF25E0FE2AFAE43BFB0ABA00010B8A828B8313
:2021AF008FF07871E21234007872E2F58208E2F58308E2F5F01235AFFF0F7872E2F58208BD
:2021CF00E2F58308E2F5F0EF02340022AFF0AE83E5827875F208EEF208EFF27875E22401A5
:2021EF00FA08E23400FB08E2FC7878E4F208F2C002C003C0047875E2F58208E2F58308E23C
:20220F00F5F01235AFFC7D007878C3E29C08E264808DF063F08095F0D004D003D002505C62
:20222F007878E225E0F51708E233F518E5172AFDE5183BFE8C078D828E838FF01235AFF50C
:20224F0019E5172AFDE5183BFE8C070DBD00010E8D828E838FF0786F1235AFF2851982C043
:1D226F0004C003C002121F6AD002D003D0047878E22401F208E23400F20221FE2279
:20228C00AFF0AE83E582787CF208EEF208EFF290FA3AE0FBA3E0FC787AE22BFB08E23CFC0A
:2022AC00C3EB94D0EC940740047582002290FA3EE0FC7B000CBC00010BC3EC941EEB6480F9
:2022CC00948040047582002290FA3CE02418F582E434FAF583787AE2F090FA3CE0FC7B00BD
:2022EC008C828B83A378E9741EF208E4F212341BAB82AC8390FA3CEBF090FA3EE02401F035
:20230C00787FE4F208F2787F797AC3E3F5F0E295F009E3F5F008E295F0506990FA36E0FA7B
:20232C00A3E0FFEA2448FAEF34F2FF787C797FE3C5F0E225F0FC09E3C5F008E235F0FD087F
:20234C00E2FE8C828D838EF01235AF8A828F83F090FA36E0FEA3E0FF8E828F83A378EB7435
:20236C00D0F2087407F2123478E5828583F090FA36F0E5F0A3F0787FE22401F208E23400D7
:20238C00F202231290FA3AE0FEA3E0FF787A90FA3AE22EF008E23FA3F075820122AFF0AE0B
:2023AC0083E5827884F208EEF208EFF290FA3EE0FC7003F582227881E2FA08E2FB08E2FC18
:2023CC0090FA3DE02418F582E434FAF583E0FF7E008A828B838CF0EF123400A3EE1234000E
:2023EC0090FA3DE0FF7E008F828E83A378E9741EF208E4F2C004C003C00212341BAE82AF9C
:20240C0083D002D003D00490FA3DEEF090FA3EE014F07887E4F208F28A828B838CF01235B7
:20242C00AFFEA31235AFFF7887C3E29E08E29F40030224BFC002C003C00478847987E3C56B
:20244C00F0E225F0FA09E3C5F008E235F0FB08E2FC90FA38E0FEA3E0FFEE2448F582EF34E8
:20246C00F2F583E08A828B838CF012340090FA38E0FEA3E0FF8E828F83A378EB74D0F208A2
:20248C007407F2C004C003C002123478E5828583F0D002D003D00490FA38F0E5F0A3F07852
:2024AC0087E22401F208E23400F2D004D003D0020224248A828B838CF01235AFFAA312354D
:1924CC00AFFB90FA3AE0FEA3E0FF90FA3AEEC39AF0EF9BA3F075820122F3
:0D0100007895E4F27898F27899F2789AF206
:2024E50074FE55F1FF4307028FF143F4F053FE0F747F55F8FF4307208FF875FA3BE5FC759D
:20250500FC0B5388F7D2AB53E8FBAE9A7F004306088E9A75F944743F44FA602F90FA3FE40B
:20252500F090FA4075F00012340090FA4175F0007445123400A374FA123400A3E4123400DE
:2025450090FA4475F000748012340074C544FA602F90FAC5E4F090FAC675F0001234009055
:20256500FAC775F00074CB123400A374FA123400A3E412340090FACA75F0007480023400A4
:2025850022C0E0C0F0C082C083C007C006C005C004C003C002C001C000C0D075D000AFF9A6
:2025A5007897E2FE24FC50030227BCEE2E2E9025B7730225D00225F0022639BF990280035A
:2025C5000227BC78977401F20227BCBF990280137893E22401F208E23400F278977403F23D
:2025E5000227BC78977401F20227BCEF247F50137893E22401F208E23400F278977403F215
:202605000227BC7898EFF27898799AE2F37899799AC3E2F5F0E395F050067899799AE2F382
:20262500789AE2600878977402F20227BC7897E4F20227BC789AE270030227B0743F44FAE2
:20264500601790FA3FE0FE90FA4075F0001235AFFDEEC39DFD7E0080047D007E007898C31A
:20266500E2F5F0ED95F040030227AB78AAEFF278A7743FF20874FAF208E4F2743F44FA7097
:202685000302277C7A3F7BFA7F00743F44FA6052743F44FA6026C002C003C00790FA3FE0D1
:2026A500FF90FA4075F0001235AFFBEFC39BFF8F21752200D007D003D0028005E4F521F573
:2026C50022AE2174052AFAE43BFB8A828B838FF01235AFFA78ABEEB5020474018001E4F22C
:2026E500800578AB7401F278ABE2600302277C78A7E22402FA08E23400FB08E2FF8A828BFF
:20270500838FF01235AFFAA31235AFFBA31235AFFF78A7E2F58208E2F58308E2F5F01235A6
:20272500AFF52178A7E22405FC08E23400FD08E2FE8C828D838EF01235AFFC8CF0E5218412
:20274500E5F0FC2AFAE43BFB8A828B838FF078AAE212340078A7E2F58208E2F58308E2F5C9
:20276500F01235AFFF0F78A7E2F58208E2F58308E2F5F0EF123400743F44FA601790FA3F51
:20278500E0FF90FA4075F0001235AFFEEFC39EFE7F0080047E007F007898E2B5060878981F
:2027A500E4F2789604F2789AE214F2789AE270077899E4F27897F2D0D0D000D001D002D00A
:2027C50003D004D005D006D007D083D082D0F0D0E032C0E0C0F0C082C083C007C006C0042E
:2027E500C003C002C000C0D075D00053E8FB7897E270387895E2602D74C544FA601790FAF7
:20280500C5E0FF90FAC675F0001235AFFEEFC39EFE7F0080047E007F007899EEF27899E234
:20282500F5F902291D75F90002291D7899E2700302291A78AC74C5F20874FAF208E4F27CEB
:202845000074C544FA602C74C544FA601790FAC5E0FB90FAC675F0001235AFFAEBC39AFA71
:202865007B0080047A007B0078AFEAB40100E433F2800578AF7401F278AFE26003022916D0
:2028850078ACE22402FA08E23400FB08E2FF8A828B838FF01235AFF523A31235AFF524A30F
:2028A5001235AFF52578ACE22401F52708E23400F52808E2F5298527828528838529F0126B
:2028C50035AFF52678ACE22405FA08E23400FB08E2FF8A828B838FF01235AFFA8AF0E526BB
:2028E50084E5F02523FAE43524FFAE258A828F838EF01235AFFC8527828528838529F0128D
:2029050035AFFF0F8527828528838529F0EF1234008CF9800375F900D0D0D000D002D00304
:20292500D004D006D007D083D082D0F0D0E032743F44FA601790FA3FE0FF90FA4075F0008B
:202945001235AFFEEFC39EFE7F0080047E007F008E82227896E270137896E2700E90F0F2AB
:20296500E0700875C9A875C95880ED78B1743FF20874FAF208E4F27C00743F44FA602C7490
:202985003F44FA601790FA3FE0FB90FA4075F0001235AFFAEBC39AFA7B0080047A007B0045
:2029A50078B4EAB40100E433F2800578B47401F278B4E26003022A4E78B1E22402FA08E226
:2029C5003400FB08E2FF8A828B838FF01235AFF52AA31235AFF52BA31235AFF52C78B1E2AE
:2029E5002401F52E08E23400F52F08E2F530852E82852F838530F01235AFF52D78B1E224E1
:202A050005FA08E23400FB08E2FF8A828B838FF01235AFFA8AF0E52D84E5F0252AFAE435E0
:202A25002BFFAE2C8A828F838EF01235AFFC852E82852F838530F01235AFFF0F852E828530
:202A45002F838530F0EF1234008C07743F44FA602C743F44FA601790FA3FE0FE90FA407587
:202A6500F0001235AFFDEEC39DFD7E0080047D007E0078B0EDB40100E433F2800578B07432
:202A850001F278B0E260047896E4F28F8222122958AE827F00C007C006122958AD82D00652
:202AA500D0077C00ED2FF582EC3EF58322122A93AE82AF838F048E057E007F00C007C00686
:202AC500C005C004122A93AA82AB83D004D005D006D0078A008B01E4FAFBE82EFEE93FFFBF
:202AE500EA3DFDEB3C8E828F838DF022E58278B8F278B574C5F20874FAF208E4F274C54421
:202B0500FA7001227EC57DFA7C0074C544FA604F74C544FA601C90FAC5E0F52A90FAC675C1
:202B2500F0001235AFFFE52AC39FFF8F2B752C008005E4F52BF52C78BAE52BF274052EFA61
:202B4500E43DFB8C078A828B838FF01235AFFA78BA79B9E2B5020474018001E4F38005786D
:202B6500B97401F278B9E260012278B5E22402FA08E23400FB08E2FF8A828B838FF0123589
:202B8500AFFAA31235AFFBA31235AFFF78B5E2F58208E2F58308E2F5F01235AFF52B78B561
:202BA500E22405FC08E23400FD08E2FE8C828D838EF01235AFFC8CF0E52B84E5F02AFAE48B
:202BC5003BFB8A828B838FF078B8E212340078B5E2F58208E2F58308E2F5F01235AFFF0F0E
:202BE50078B5E2F58208E2F58308E2F5F0EF023400AE82AF838F0578BB74C5F20874FAF238
:202C050008E4F274C544FA7003022D1B7CC57BFA7A0074C544FA605D74C544FA6022C0067A
:202C2500C00790FAC5E0FF90FAC675F0001235AFFEEFC39EFF8F2A752B00D007D006800517
:202C4500E4F52AF52BC006C00778BFE52AF274052CFCE43BFE8A078C828E838FF01235AFA4
:202C6500FC78BF79BEE2B5040474018001E4F3D007D006800578BE7401F278BEE26003022D
:202C85002D1BC006C00778BBE22402FA08E23400FB08E2FC8A828B838CF01235AFF52CA3D6
:202CA5001235AFF52DA31235AFF52E78BBE2F58208E2F58308E2F5F01235AFF52A78BBE254
:202CC5002405FC08E23400FE08E2FF8C828E838FF01235AFFC8CF0E52A84E5F0252CFCE420
:202CE500352DFFAE2E8C828F838EF0ED12340078BBE2F58208E2F58308E2F5F01235AFFF0F
:202D05000F78BBE2F58208E2F58308E2F5F0EF123400D007D0068E0578C074C5F20874FA94
:202D2500F208E4F274C544FA7001227AC57EFA7F0074C544FA604074C544FA601790FAC52A
:202D4500E0FC90FAC675F0001235AFFBECC39BFB7C0080047B007C0074052AFAE43EFE8A69
:202D6500828E838FF01235AFFA78C3EBB5020474018001E4F2800578C37401F278C3E260FB
:202D8500012278C0E22402FC08E23400FE08E2FF8C828E838FF01235AFF52FA31235AFF584
:202DA50030A31235AFF53178C0E2F58208E2F58308E2F5F01235AFF52C78C0E22405FA0801
:202DC500E23400FB08E2FF8A828B838FF01235AFFA8AF0E52C84E5F0252FFAE43530FFAE43
:202DE500318A828F838EF0ED12340078C0E2F58208E2F58308E2F5F01235AFFF0F78C0E2EE
:202E0500F58208E2F58308E2F5F0EF023400AF82AE83ADF0FC78C4EFF208EEF208EDF208F1
:202E2500ECF278C479CB080808E2F378C874C5F20874FAF208E4F274C544FA7003022F2650
:202E45007AC57BFA7F0074C544FA604074C544FA601790FAC5E0FE90FAC675F0001235AF5D
:202E6500FDEEC39DFD7E0080047D007E0074052AFAE43BFB8A828B838FF01235AFFA78CC84
:202E8500EDB5020474018001E4F2800578CC7401F278CCE26003022F2678C8E22402FD085C
:202EA500E23400FE08E2FF8D828E838FF01235AFFDA31235AFFEA31235AFFF78C8E2F582B6
:202EC50008E2F58308E2F5F01235AFF52A78C8E22405FA08E23400FB08E2FC8A828B838CBD
:202EE500F01235AFFA8AF0E52A84E5F0FA2DFDE43EFE8D828E838FF078CBE212340078C87D
:202F0500E2F58208E2F58308E2F5F01235AFFF0F78C8E2F58208E2F58308E2F5F0EF12341F
:202F25000078C479D00808E2F378CD74C5F20874FAF208E4F274C544FA70030230367AC5DB
:202F45007BFA7F0074C544FA605274C544FA6026C002C003C00790FAC5E0FF90FAC675F023
:202F6500001235AFFBEFC39BFF8F2B752C00D007D003D0028005E4F52BF52CAE2B74052A12
:202F8500FAE43BFB8A828B838FF01235AFFA78D1EEB5020474018001E4F2800578D174018E
:202FA500F278D1E2600302303678CDE22402FA08E23400FB08E2FF8A828B838FF01235AF4C
:202FC500FAA31235AFFBA31235AFFF78CDE2F58208E2F58308E2F5F01235AFF52B78CDE2BA
:202FE5002405FC08E23400FD08E2FE8C828D838EF01235AFFC8CF0E52B84E5F0FC2AFAE42D
:203005003BFB8A828B838FF078D0E212340078CDE2F58208E2F58308E2F5F01235AFFF0F99
:2030250078CDE2F58208E2F58308E2F5F0EF12340078C479D508E2F378D274C5F20874FA35
:20304500F208E4F274C544FA70030231457AC57BFA7F0074C544FA605274C544FA6026C020
:2030650002C003C00790FAC5E0FF90FAC675F0001235AFFBEFC39BFF8F2B752C00D007D09D
:2030850003D0028005E4F52BF52CAE2B74052AFAE43BFB8A828B838FF01235AFFA78D6EE57
:2030A500B5020474018001E4F2800578D67401F278D6E2600302314578D2E22402FA08E209
:2030C5003400FB08E2FF8A828B838FF01235AFFAA31235AFFBA31235AFFF78D2E2F5820873
:2030E500E2F58308E2F5F01235AFF52B78D2E22405FC08E23400FD08E2FE8C828D838EF09C
:203105001235AFFC8CF0E52B84E5F0FC2AFAE43BFB8A828B838FF078D5E212340078D2E25F
:20312500F58208E2F58308E2F5F01235AFFF0F78D2E2F58208E2F58308E2F5F0EF123400D5
:2031450078C479DAE2F378D774C5F20874FAF208E4F274C544FA7001227AC57BFA7C007498
:20316500C544FA605274C544FA6026C002C003C00490FAC5E0FC90FAC675F0001235AFFB7E
:20318500ECC39BFC8C2B752C00D004D003D0028005E4F52BF52CAF2B74052AFAE43BFB8A4E
:2031A500828B838CF01235AFFA78DBEFB5020474018001E4F2800578DB7401F278DBE26071
:2031C500012278D7E22402FA08E23400FB08E2FC8A828B838CF01235AFFAA31235AFFBA3BA
:2031E5001235AFFC78D7E2F58208E2F58308E2F5F01235AFF52B78D7E22405FD08E2340074
:20320500FE08E2FF8D828E838FF01235AFFD8DF0E52B84E5F02AFAE43BFB8A828B838CF076
:2032250078DAE212340078D7E2F58208E2F58308E2F5F01235AFFF0F78D7E2F58208E2F5AB
:203245008308E2F5F0EF02340074C544FA602C74C544FA601790FAC5E0FF90FAC675F0001E
:203265001235AFFEEFC39EFE7F0080047E007F0078DDEEB40100E433F2800578DD7401F2C5
:2032850078DDE2600122C2AF78DE7941E3F20809E3F20809E3F20809E3F2D2AF7895740164
:2032A500F274C544FA602C74C544FA601790FAC5E0FF90FAC675F0001235AFFEEFC39EFE01
:2032C5007F0080047E007F0078DCEEB40100E433F2800578DC7401F278DCE2704B90F0F246
:2032E500E0704575C9A875C958C2AF784179DEE3F5F0C3E295F0FC09E3F5F008E295F0FD0C
:2033050009E3F5F008E295F0FE09E3F5F008E295F0FFC374889C74139DE49EE49FE433FC94
:20332500D2AFEC70030232A67899E2604890F0F2E0704275C9A875C958C2AF784179DEE34F
:20334500F5F0C3E295F0FC09E3F5F008E295F0FD09E3F5F008E295F0FE09E3F5F008E29592
:20336500F0FFC374889C74139DE49EE49FE433FCD2AFEC60B37895E4F222AD82AE83AFF03E
:203385008D828E838FF01235AFFC60188C82C007C006C005122AF1D005D006D0070DBD0046
:0733A500DF0E80DC02324E56
:0600BA00E478FFF6D8FD1A
:2033AC00AFF0AE83E58278E5F208EEF208EFF278E5E2FA08E2FB08E2FC78E3E2F52A08E260
:2033CC00F52BAE2AAF2B152A74FFB52A02152BEE4F60138A828B838CF078E2E2123400A3D1
:1433EC00AA82AB8380DC78E5E2F58208E2F58308E2F5F0220E
:20009800792EE94400601B7A019035E1784B7593FBE493F2A308B800020593D9F4DAF2759E
:0200B80093FFB4
:1B34000020F71130F6138883A88220F509F6A8837583002280FEF280F5F022CB
:20341B00AE82E583FF33E433FD6009C3E49EFBE49FFC80048E038F0478EAE230E71078E917
:20343B00E2D3F43400FE08E2F43400FF800778E9E2FE08E2FF78EBEEF208EFF28B828C838C
:1D345B00C005123478AE82AF83D005ED600AC3E49EF582E49FF583228E828F832226
:20347800AE82AF837D007C0078ECE2235401FB703578EBE225E0F208E233F278EBC3E2F533
:20349800F0EE95F008E2F5F0EF95F0501478EBE2F5F008E2C313C5F01318F2C5F008F2801F
:2034B800050C8C0580C278EBC3E2F5F0EE95F008E2F5F0EF95F0400E78EBD3E29EF4B3FEC4
:2034D800B308E29FF4FF78EBE2F5F008E2C313C5F01318F2C5F008F28D041DEC70C88E8258
:0334F8008F83229D
:2034FB00AE82E583FF33E433FD6009C3E49EFBE49FFC80048E038F0478EEE233E433FF6012
:20351B001078EDE2D3F43400FA08E2F43400FE800778EDE2FA08E2FE78EFEAF208EEF28BCE
:20353B00828C83C007C005123560AC82AE83D005D007EF6D600AC3E49CF582E49EF5832205
:05355B008C828E83222A
:2000C00078F1E84400600A79007593F0E4F309D8FC785AE8440A600C790B90F0F1E4F0A31C
:0400E000D8FCD9FA75
:20356000AE82AF837C007D007B10EF235401FAEE2EFEEF33FFEC2CFCED33FDEA6003430404
:203580000178EFC3E2F5F0EC95F008E2F5F0ED95F0401178EFD3E29CF4B3FCB308E29DF4AD
:0F35A000FD430601EB14FAFB70C08E828F83226D
:02008900E4731E
:0D008B007581311235CBE5826003020086DD
:1C35AF0020F71430F6148883A88220F507E6A88375830022E280F7E49322E0222B
:0435CB0075820022E3
:00000001FF
